{
  "contractName": "ETHPool",
  "abi": [
    {
      "inputs": [],
      "stateMutability": "nonpayable",
      "type": "constructor"
    },
    {
      "anonymous": false,
      "inputs": [
        {
          "indexed": true,
          "internalType": "address",
          "name": "user",
          "type": "address"
        },
        {
          "indexed": false,
          "internalType": "uint256",
          "name": "amount",
          "type": "uint256"
        }
      ],
      "name": "ClaimedRewards",
      "type": "event"
    },
    {
      "anonymous": false,
      "inputs": [
        {
          "indexed": false,
          "internalType": "uint256",
          "name": "blockNumber",
          "type": "uint256"
        },
        {
          "indexed": false,
          "internalType": "uint256",
          "name": "amount",
          "type": "uint256"
        }
      ],
      "name": "DepositedRewards",
      "type": "event"
    },
    {
      "anonymous": false,
      "inputs": [
        {
          "indexed": true,
          "internalType": "bytes32",
          "name": "role",
          "type": "bytes32"
        },
        {
          "indexed": true,
          "internalType": "bytes32",
          "name": "previousAdminRole",
          "type": "bytes32"
        },
        {
          "indexed": true,
          "internalType": "bytes32",
          "name": "newAdminRole",
          "type": "bytes32"
        }
      ],
      "name": "RoleAdminChanged",
      "type": "event"
    },
    {
      "anonymous": false,
      "inputs": [
        {
          "indexed": true,
          "internalType": "bytes32",
          "name": "role",
          "type": "bytes32"
        },
        {
          "indexed": true,
          "internalType": "address",
          "name": "account",
          "type": "address"
        },
        {
          "indexed": true,
          "internalType": "address",
          "name": "sender",
          "type": "address"
        }
      ],
      "name": "RoleGranted",
      "type": "event"
    },
    {
      "anonymous": false,
      "inputs": [
        {
          "indexed": true,
          "internalType": "bytes32",
          "name": "role",
          "type": "bytes32"
        },
        {
          "indexed": true,
          "internalType": "address",
          "name": "account",
          "type": "address"
        },
        {
          "indexed": true,
          "internalType": "address",
          "name": "sender",
          "type": "address"
        }
      ],
      "name": "RoleRevoked",
      "type": "event"
    },
    {
      "anonymous": false,
      "inputs": [
        {
          "indexed": true,
          "internalType": "address",
          "name": "user",
          "type": "address"
        },
        {
          "indexed": false,
          "internalType": "uint256",
          "name": "amount",
          "type": "uint256"
        }
      ],
      "name": "StakedETH",
      "type": "event"
    },
    {
      "anonymous": false,
      "inputs": [
        {
          "indexed": true,
          "internalType": "address",
          "name": "user",
          "type": "address"
        },
        {
          "indexed": false,
          "internalType": "uint256",
          "name": "amount",
          "type": "uint256"
        }
      ],
      "name": "WithdrawnETH",
      "type": "event"
    },
    {
      "inputs": [],
      "name": "ADMIN_ROLE",
      "outputs": [
        {
          "internalType": "bytes32",
          "name": "",
          "type": "bytes32"
        }
      ],
      "stateMutability": "view",
      "type": "function",
      "constant": true
    },
    {
      "inputs": [],
      "name": "DEFAULT_ADMIN_ROLE",
      "outputs": [
        {
          "internalType": "bytes32",
          "name": "",
          "type": "bytes32"
        }
      ],
      "stateMutability": "view",
      "type": "function",
      "constant": true
    },
    {
      "inputs": [],
      "name": "TEAM_ROLE",
      "outputs": [
        {
          "internalType": "bytes32",
          "name": "",
          "type": "bytes32"
        }
      ],
      "stateMutability": "view",
      "type": "function",
      "constant": true
    },
    {
      "inputs": [
        {
          "internalType": "bytes32",
          "name": "role",
          "type": "bytes32"
        }
      ],
      "name": "getRoleAdmin",
      "outputs": [
        {
          "internalType": "bytes32",
          "name": "",
          "type": "bytes32"
        }
      ],
      "stateMutability": "view",
      "type": "function",
      "constant": true
    },
    {
      "inputs": [
        {
          "internalType": "bytes32",
          "name": "role",
          "type": "bytes32"
        },
        {
          "internalType": "address",
          "name": "account",
          "type": "address"
        }
      ],
      "name": "grantRole",
      "outputs": [],
      "stateMutability": "nonpayable",
      "type": "function"
    },
    {
      "inputs": [
        {
          "internalType": "bytes32",
          "name": "role",
          "type": "bytes32"
        },
        {
          "internalType": "address",
          "name": "account",
          "type": "address"
        }
      ],
      "name": "hasRole",
      "outputs": [
        {
          "internalType": "bool",
          "name": "",
          "type": "bool"
        }
      ],
      "stateMutability": "view",
      "type": "function",
      "constant": true
    },
    {
      "inputs": [
        {
          "internalType": "bytes32",
          "name": "role",
          "type": "bytes32"
        },
        {
          "internalType": "address",
          "name": "account",
          "type": "address"
        }
      ],
      "name": "renounceRole",
      "outputs": [],
      "stateMutability": "nonpayable",
      "type": "function"
    },
    {
      "inputs": [
        {
          "internalType": "bytes32",
          "name": "role",
          "type": "bytes32"
        },
        {
          "internalType": "address",
          "name": "account",
          "type": "address"
        }
      ],
      "name": "revokeRole",
      "outputs": [],
      "stateMutability": "nonpayable",
      "type": "function"
    },
    {
      "inputs": [
        {
          "internalType": "address",
          "name": "",
          "type": "address"
        }
      ],
      "name": "s_client",
      "outputs": [
        {
          "internalType": "uint256",
          "name": "pendingAmount",
          "type": "uint256"
        },
        {
          "internalType": "uint256",
          "name": "balance",
          "type": "uint256"
        }
      ],
      "stateMutability": "view",
      "type": "function",
      "constant": true
    },
    {
      "inputs": [],
      "name": "s_owner",
      "outputs": [
        {
          "internalType": "address",
          "name": "",
          "type": "address"
        }
      ],
      "stateMutability": "view",
      "type": "function",
      "constant": true
    },
    {
      "inputs": [],
      "name": "s_totalRewardPerTokenMask",
      "outputs": [
        {
          "internalType": "uint256",
          "name": "",
          "type": "uint256"
        }
      ],
      "stateMutability": "view",
      "type": "function",
      "constant": true
    },
    {
      "inputs": [
        {
          "internalType": "address",
          "name": "",
          "type": "address"
        }
      ],
      "name": "s_userRewardPerTokenMask",
      "outputs": [
        {
          "internalType": "uint256",
          "name": "",
          "type": "uint256"
        }
      ],
      "stateMutability": "view",
      "type": "function",
      "constant": true
    },
    {
      "inputs": [
        {
          "internalType": "bytes4",
          "name": "interfaceId",
          "type": "bytes4"
        }
      ],
      "name": "supportsInterface",
      "outputs": [
        {
          "internalType": "bool",
          "name": "",
          "type": "bool"
        }
      ],
      "stateMutability": "view",
      "type": "function",
      "constant": true
    },
    {
      "stateMutability": "payable",
      "type": "receive",
      "payable": true
    },
    {
      "inputs": [],
      "name": "withdrawAllETH",
      "outputs": [],
      "stateMutability": "nonpayable",
      "type": "function"
    },
    {
      "inputs": [
        {
          "internalType": "uint256",
          "name": "_amount",
          "type": "uint256"
        }
      ],
      "name": "withdrawExactETH",
      "outputs": [],
      "stateMutability": "nonpayable",
      "type": "function"
    },
    {
      "inputs": [],
      "name": "getPoolBalance",
      "outputs": [
        {
          "internalType": "uint256",
          "name": "",
          "type": "uint256"
        }
      ],
      "stateMutability": "view",
      "type": "function",
      "constant": true
    },
    {
      "inputs": [],
      "name": "getRewardBalance",
      "outputs": [
        {
          "internalType": "uint256",
          "name": "",
          "type": "uint256"
        }
      ],
      "stateMutability": "view",
      "type": "function",
      "constant": true
    },
    {
      "inputs": [
        {
          "internalType": "address",
          "name": "_account",
          "type": "address"
        }
      ],
      "name": "getUserBalance",
      "outputs": [
        {
          "internalType": "uint256",
          "name": "",
          "type": "uint256"
        }
      ],
      "stateMutability": "view",
      "type": "function",
      "constant": true
    },
    {
      "inputs": [
        {
          "internalType": "address",
          "name": "_account",
          "type": "address"
        }
      ],
      "name": "getUserPendingRewards",
      "outputs": [
        {
          "internalType": "uint256",
          "name": "",
          "type": "uint256"
        }
      ],
      "stateMutability": "view",
      "type": "function",
      "constant": true
    },
    {
      "inputs": [
        {
          "internalType": "uint256",
          "name": "_reward",
          "type": "uint256"
        }
      ],
      "name": "getNextTotalRewardMask",
      "outputs": [
        {
          "internalType": "uint256",
          "name": "",
          "type": "uint256"
        }
      ],
      "stateMutability": "view",
      "type": "function",
      "constant": true
    },
    {
      "inputs": [],
      "name": "depositRewards",
      "outputs": [],
      "stateMutability": "payable",
      "type": "function",
      "payable": true
    },
    {
      "inputs": [],
      "name": "claimRewards",
      "outputs": [],
      "stateMutability": "nonpayable",
      "type": "function"
    }
  ],
  "bytecode": "0x60806040523480156200001157600080fd5b506001808190555033600360006101000a81548173ffffffffffffffffffffffffffffffffffffffff021916908373ffffffffffffffffffffffffffffffffffffffff160217905550620000ae7fa49807205ce4d355092ef5a8a18f56e8913cf4a201fbe287825b095693c21775600360009054906101000a900473ffffffffffffffffffffffffffffffffffffffff166200010660201b60201c565b620001007f5146a08baf902532d0ee2f909971144f12ca32651cd70cbee1117cddfb3b3b337fa49807205ce4d355092ef5a8a18f56e8913cf4a201fbe287825b095693c217756200011c60201b60201c565b62000301565b6200011882826200017f60201b60201c565b5050565b60006200012f836200027060201b60201c565b905081600080858152602001908152602001600020600101819055508181847fbd79b86ffe0ab8e8776151514217cd7cacd52c909f66475c3af44e129f0b00ff60405160405180910390a4505050565b6200019182826200028f60201b60201c565b6200026c57600160008084815260200190815260200160002060000160008373ffffffffffffffffffffffffffffffffffffffff1673ffffffffffffffffffffffffffffffffffffffff16815260200190815260200160002060006101000a81548160ff02191690831515021790555062000211620002f960201b60201c565b73ffffffffffffffffffffffffffffffffffffffff168173ffffffffffffffffffffffffffffffffffffffff16837f2f8788117e7eff1d82e926ec794901d17c78024a50270940304540a733656f0d60405160405180910390a45b5050565b6000806000838152602001908152602001600020600101549050919050565b600080600084815260200190815260200160002060000160008373ffffffffffffffffffffffffffffffffffffffff1673ffffffffffffffffffffffffffffffffffffffff16815260200190815260200160002060009054906101000a900460ff16905092915050565b600033905090565b6124f280620003116000396000f3fe6080604052600436106101395760003560e01c806375943adb116100ab578063abd70aa21161006f578063abd70aa214610600578063c094729e1461062b578063cf7c11fa14610656578063d547741f14610693578063e3978240146106bc578063ea27a525146106e75761032d565b806375943adb1461051857806375b238fc1461055657806390386bbf1461058157806391d1485414610598578063a217fddf146105d55761032d565b8063372500ab116100fd578063372500ab14610408578063477348921461041f57806349d5e6041461045c57806350d7323a14610487578063577c7fd4146104c45780635e42b455146104ed5761032d565b806301ffc9a714610332578063152111f71461036f578063248a9ca3146103795780632f2ff15d146103b657806336568abe146103df5761032d565b3661032d57600260015403610183576040517f08c379a000000000000000000000000000000000000000000000000000000000815260040161017a9061184a565b60405180910390fd5b6002600181905550600034116101ce576040517f08c379a00000000000000000000000000000000000000000000000000000000081526004016101c5906118dc565b60405180910390fd5b336101d881610724565b600760008373ffffffffffffffffffffffffffffffffffffffff1673ffffffffffffffffffffffffffffffffffffffff16815260200190815260200160002060000181905550600554600660008373ffffffffffffffffffffffffffffffffffffffff1673ffffffffffffffffffffffffffffffffffffffff1681526020019081526020016000208190555034600260008282546102769190611935565b9250508190555034600760003373ffffffffffffffffffffffffffffffffffffffff1673ffffffffffffffffffffffffffffffffffffffff16815260200190815260200160002060010160008282546102cf9190611935565b925050819055503373ffffffffffffffffffffffffffffffffffffffff167f9059e22bc4b638e50d3857ae11ba0b0e3a18c1ebb228738351256f131b392a093460405161031c919061199a565b60405180910390a250600180819055005b600080fd5b34801561033e57600080fd5b5061035960048036038101906103549190611a12565b61080d565b6040516103669190611a5a565b60405180910390f35b610377610887565b005b34801561038557600080fd5b506103a0600480360381019061039b9190611aab565b61099f565b6040516103ad9190611ae7565b60405180910390f35b3480156103c257600080fd5b506103dd60048036038101906103d89190611b60565b6109be565b005b3480156103eb57600080fd5b5061040660048036038101906104019190611b60565b6109df565b005b34801561041457600080fd5b5061041d610a62565b005b34801561042b57600080fd5b5061044660048036038101906104419190611ba0565b610d2f565b604051610453919061199a565b60405180910390f35b34801561046857600080fd5b50610471610d7b565b60405161047e9190611ae7565b60405180910390f35b34801561049357600080fd5b506104ae60048036038101906104a99190611ba0565b610d9f565b6040516104bb919061199a565b60405180910390f35b3480156104d057600080fd5b506104eb60048036038101906104e69190611bf9565b610db7565b005b3480156104f957600080fd5b5061050261111c565b60405161050f919061199a565b60405180910390f35b34801561052457600080fd5b5061053f600480360381019061053a9190611ba0565b611126565b60405161054d929190611c26565b60405180910390f35b34801561056257600080fd5b5061056b61114a565b6040516105789190611ae7565b60405180910390f35b34801561058d57600080fd5b5061059661116e565b005b3480156105a457600080fd5b506105bf60048036038101906105ba9190611b60565b6111bb565b6040516105cc9190611a5a565b60405180910390f35b3480156105e157600080fd5b506105ea611225565b6040516105f79190611ae7565b60405180910390f35b34801561060c57600080fd5b5061061561122c565b604051610622919061199a565b60405180910390f35b34801561063757600080fd5b50610640611236565b60405161064d919061199a565b60405180910390f35b34801561066257600080fd5b5061067d60048036038101906106789190611ba0565b610724565b60405161068a919061199a565b60405180910390f35b34801561069f57600080fd5b506106ba60048036038101906106b59190611b60565b61123c565b005b3480156106c857600080fd5b506106d161125d565b6040516106de9190611c5e565b60405180910390f35b3480156106f357600080fd5b5061070e60048036038101906107099190611bf9565b611283565b60405161071b919061199a565b60405180910390f35b600080600760008473ffffffffffffffffffffffffffffffffffffffff1673ffffffffffffffffffffffffffffffffffffffff1681526020019081526020016000206040518060400160405290816000820154815260200160018201548152505090508060000151670de0b6b3a7640000600660008673ffffffffffffffffffffffffffffffffffffffff1673ffffffffffffffffffffffffffffffffffffffff168152602001908152602001600020546005546107e29190611c79565b83602001516107f19190611cad565b6107fb9190611d36565b6108059190611935565b915050919050565b60007f7965db0b000000000000000000000000000000000000000000000000000000007bffffffffffffffffffffffffffffffffffffffffffffffffffffffff1916827bffffffffffffffffffffffffffffffffffffffffffffffffffffffff19161480610880575061087f826112cd565b5b9050919050565b7f5146a08baf902532d0ee2f909971144f12ca32651cd70cbee1117cddfb3b3b336108b181611337565b600034116108f4576040517f08c379a00000000000000000000000000000000000000000000000000000000081526004016108eb906118dc565b60405180910390fd5b346108fe81611283565b600581905550600060025411610949576040517f08c379a000000000000000000000000000000000000000000000000000000000815260040161094090611dd9565b60405180910390fd5b346004600082825461095b9190611935565b925050819055507f544ff16c41b91e6952967326286677b877a86c15a3ea1de472a287545676c0934334604051610993929190611c26565b60405180910390a15050565b6000806000838152602001908152602001600020600101549050919050565b6109c78261099f565b6109d081611337565b6109da838361134b565b505050565b6109e761142b565b73ffffffffffffffffffffffffffffffffffffffff168173ffffffffffffffffffffffffffffffffffffffff1614610a54576040517f08c379a0000000000000000000000000000000000000000000000000000000008152600401610a4b90611e6b565b60405180910390fd5b610a5e8282611433565b5050565b600260015403610aa7576040517f08c379a0000000000000000000000000000000000000000000000000000000008152600401610a9e9061184a565b60405180910390fd5b600260018190555033610ab981610724565b600760008373ffffffffffffffffffffffffffffffffffffffff1673ffffffffffffffffffffffffffffffffffffffff16815260200190815260200160002060000181905550600554600660008373ffffffffffffffffffffffffffffffffffffffff1673ffffffffffffffffffffffffffffffffffffffff168152602001908152602001600020819055506000600760003373ffffffffffffffffffffffffffffffffffffffff1673ffffffffffffffffffffffffffffffffffffffff1681526020019081526020016000206040518060400160405290816000820154815260200160018201548152505090506000816000015190506000826000015111610bf7576040517f08c379a0000000000000000000000000000000000000000000000000000000008152600401610bee90611ed7565b60405180910390fd5b80471015610c3a576040517f08c379a0000000000000000000000000000000000000000000000000000000008152600401610c3190611f43565b60405180910390fd5b806004541015610c7f576040517f08c379a0000000000000000000000000000000000000000000000000000000008152600401610c7690611fd5565b60405180910390fd5b60008260000181815250508082602001818151610c9c9190611935565b915081815250508060026000828254610cb59190611935565b925050819055508060046000828254610cce9190611c79565b925050819055503373ffffffffffffffffffffffffffffffffffffffff167f2d5429efdeca7741a8cd94067b18d988bc4e5f1d5b8272c37b7bfc31e9bfa32c82604051610d1b919061199a565b60405180910390a250505060018081905550565b6000600760008373ffffffffffffffffffffffffffffffffffffffff1673ffffffffffffffffffffffffffffffffffffffff168152602001908152602001600020600101549050919050565b7f5146a08baf902532d0ee2f909971144f12ca32651cd70cbee1117cddfb3b3b3381565b60066020528060005260406000206000915090505481565b600260015403610dfc576040517f08c379a0000000000000000000000000000000000000000000000000000000008152600401610df39061184a565b60405180910390fd5b600260018190555033610e0e81610724565b600760008373ffffffffffffffffffffffffffffffffffffffff1673ffffffffffffffffffffffffffffffffffffffff16815260200190815260200160002060000181905550600554600660008373ffffffffffffffffffffffffffffffffffffffff1673ffffffffffffffffffffffffffffffffffffffff168152602001908152602001600020819055506000600760003373ffffffffffffffffffffffffffffffffffffffff1673ffffffffffffffffffffffffffffffffffffffff16815260200190815260200160002060010154905060008111610f24576040517f08c379a0000000000000000000000000000000000000000000000000000000008152600401610f1b90612067565b60405180910390fd5b60008311610f67576040517f08c379a0000000000000000000000000000000000000000000000000000000008152600401610f5e906120d3565b60405180910390fd5b82811015610faa576040517f08c379a0000000000000000000000000000000000000000000000000000000008152600401610fa19061213f565b60405180910390fd5b8281610fb69190611c79565b600760003373ffffffffffffffffffffffffffffffffffffffff1673ffffffffffffffffffffffffffffffffffffffff16815260200190815260200160002060010181905550826002600082825461100e9190611c79565b9250508190555060003373ffffffffffffffffffffffffffffffffffffffff168460405161103b90612190565b60006040518083038185875af1925050503d8060008114611078576040519150601f19603f3d011682016040523d82523d6000602084013e61107d565b606091505b50509050806110c1576040517f08c379a00000000000000000000000000000000000000000000000000000000081526004016110b8906121f1565b60405180910390fd5b3373ffffffffffffffffffffffffffffffffffffffff167f5817fe91d2748c33f168d8a78037fc073adaf6ec8e3613a758d44a2cfae4563d85604051611107919061199a565b60405180910390a25050506001808190555050565b6000600454905090565b60076020528060005260406000206000915090508060000154908060010154905082565b7fa49807205ce4d355092ef5a8a18f56e8913cf4a201fbe287825b095693c2177581565b6111b9600760003373ffffffffffffffffffffffffffffffffffffffff1673ffffffffffffffffffffffffffffffffffffffff16815260200190815260200160002060010154610db7565b565b600080600084815260200190815260200160002060000160008373ffffffffffffffffffffffffffffffffffffffff1673ffffffffffffffffffffffffffffffffffffffff16815260200190815260200160002060009054906101000a900460ff16905092915050565b6000801b81565b6000600254905090565b60055481565b6112458261099f565b61124e81611337565b6112588383611433565b505050565b600360009054906101000a900473ffffffffffffffffffffffffffffffffffffffff1681565b6000806002540361129757600090506112c8565b600254670de0b6b3a7640000836112ae9190611cad565b6112b89190611d36565b6005546112c59190611935565b90505b919050565b60007f01ffc9a7000000000000000000000000000000000000000000000000000000007bffffffffffffffffffffffffffffffffffffffffffffffffffffffff1916827bffffffffffffffffffffffffffffffffffffffffffffffffffffffff1916149050919050565b6113488161134361142b565b611514565b50565b61135582826111bb565b61142757600160008084815260200190815260200160002060000160008373ffffffffffffffffffffffffffffffffffffffff1673ffffffffffffffffffffffffffffffffffffffff16815260200190815260200160002060006101000a81548160ff0219169083151502179055506113cc61142b565b73ffffffffffffffffffffffffffffffffffffffff168173ffffffffffffffffffffffffffffffffffffffff16837f2f8788117e7eff1d82e926ec794901d17c78024a50270940304540a733656f0d60405160405180910390a45b5050565b600033905090565b61143d82826111bb565b1561151057600080600084815260200190815260200160002060000160008373ffffffffffffffffffffffffffffffffffffffff1673ffffffffffffffffffffffffffffffffffffffff16815260200190815260200160002060006101000a81548160ff0219169083151502179055506114b561142b565b73ffffffffffffffffffffffffffffffffffffffff168173ffffffffffffffffffffffffffffffffffffffff16837ff6391f5c32d9c69d2a47ea670b442974b53935d1edc7fd64eb21e047a839171b60405160405180910390a45b5050565b61151e82826111bb565b6115ad576115438173ffffffffffffffffffffffffffffffffffffffff1660146115b1565b6115518360001c60206115b1565b604051602001611562929190612323565b6040516020818303038152906040526040517f08c379a00000000000000000000000000000000000000000000000000000000081526004016115a491906123a7565b60405180910390fd5b5050565b6060600060028360026115c49190611cad565b6115ce9190611935565b67ffffffffffffffff8111156115e7576115e66123c9565b5b6040519080825280601f01601f1916602001820160405280156116195781602001600182028036833780820191505090505b5090507f300000000000000000000000000000000000000000000000000000000000000081600081518110611651576116506123f8565b5b60200101907effffffffffffffffffffffffffffffffffffffffffffffffffffffffffffff1916908160001a9053507f7800000000000000000000000000000000000000000000000000000000000000816001815181106116b5576116b46123f8565b5b60200101907effffffffffffffffffffffffffffffffffffffffffffffffffffffffffffff1916908160001a905350600060018460026116f59190611cad565b6116ff9190611935565b90505b600181111561179f577f3031323334353637383961626364656600000000000000000000000000000000600f861660108110611741576117406123f8565b5b1a60f81b828281518110611758576117576123f8565b5b60200101907effffffffffffffffffffffffffffffffffffffffffffffffffffffffffffff1916908160001a905350600485901c94508061179890612427565b9050611702565b50600084146117e3576040517f08c379a00000000000000000000000000000000000000000000000000000000081526004016117da9061249c565b60405180910390fd5b8091505092915050565b600082825260208201905092915050565b7f5265656e7472616e637947756172643a207265656e7472616e742063616c6c00600082015250565b6000611834601f836117ed565b915061183f826117fe565b602082019050919050565b6000602082019050818103600083015261186381611827565b9050919050565b7f4d7573742073656e64206120706f73697469766520616d6f756e74206f66204560008201527f54482e0000000000000000000000000000000000000000000000000000000000602082015250565b60006118c66023836117ed565b91506118d18261186a565b604082019050919050565b600060208201905081810360008301526118f5816118b9565b9050919050565b6000819050919050565b7f4e487b7100000000000000000000000000000000000000000000000000000000600052601160045260246000fd5b6000611940826118fc565b915061194b836118fc565b9250827fffffffffffffffffffffffffffffffffffffffffffffffffffffffffffffffff038211156119805761197f611906565b5b828201905092915050565b611994816118fc565b82525050565b60006020820190506119af600083018461198b565b92915050565b600080fd5b60007fffffffff0000000000000000000000000000000000000000000000000000000082169050919050565b6119ef816119ba565b81146119fa57600080fd5b50565b600081359050611a0c816119e6565b92915050565b600060208284031215611a2857611a276119b5565b5b6000611a36848285016119fd565b91505092915050565b60008115159050919050565b611a5481611a3f565b82525050565b6000602082019050611a6f6000830184611a4b565b92915050565b6000819050919050565b611a8881611a75565b8114611a9357600080fd5b50565b600081359050611aa581611a7f565b92915050565b600060208284031215611ac157611ac06119b5565b5b6000611acf84828501611a96565b91505092915050565b611ae181611a75565b82525050565b6000602082019050611afc6000830184611ad8565b92915050565b600073ffffffffffffffffffffffffffffffffffffffff82169050919050565b6000611b2d82611b02565b9050919050565b611b3d81611b22565b8114611b4857600080fd5b50565b600081359050611b5a81611b34565b92915050565b60008060408385031215611b7757611b766119b5565b5b6000611b8585828601611a96565b9250506020611b9685828601611b4b565b9150509250929050565b600060208284031215611bb657611bb56119b5565b5b6000611bc484828501611b4b565b91505092915050565b611bd6816118fc565b8114611be157600080fd5b50565b600081359050611bf381611bcd565b92915050565b600060208284031215611c0f57611c0e6119b5565b5b6000611c1d84828501611be4565b91505092915050565b6000604082019050611c3b600083018561198b565b611c48602083018461198b565b9392505050565b611c5881611b22565b82525050565b6000602082019050611c736000830184611c4f565b92915050565b6000611c84826118fc565b9150611c8f836118fc565b925082821015611ca257611ca1611906565b5b828203905092915050565b6000611cb8826118fc565b9150611cc3836118fc565b9250817fffffffffffffffffffffffffffffffffffffffffffffffffffffffffffffffff0483118215151615611cfc57611cfb611906565b5b828202905092915050565b7f4e487b7100000000000000000000000000000000000000000000000000000000600052601260045260246000fd5b6000611d41826118fc565b9150611d4c836118fc565b925082611d5c57611d5b611d07565b5b828204905092915050565b7f54686520706f6f6c206d7573742068617665206174206c65617374206f6e652060008201527f7374616b696e6720757365722e00000000000000000000000000000000000000602082015250565b6000611dc3602d836117ed565b9150611dce82611d67565b604082019050919050565b60006020820190508181036000830152611df281611db6565b9050919050565b7f416363657373436f6e74726f6c3a2063616e206f6e6c792072656e6f756e636560008201527f20726f6c657320666f722073656c660000000000000000000000000000000000602082015250565b6000611e55602f836117ed565b9150611e6082611df9565b604082019050919050565b60006020820190508181036000830152611e8481611e48565b9050919050565b7f5573657220686173206e6f2070656e64696e6720726577617264732e00000000600082015250565b6000611ec1601c836117ed565b9150611ecc82611e8b565b602082019050919050565b60006020820190508181036000830152611ef081611eb4565b9050919050565b7f435249544943414c3a20436f6e747261637420686173206e6f204554482e0000600082015250565b6000611f2d601e836117ed565b9150611f3882611ef7565b602082019050919050565b60006020820190508181036000830152611f5c81611f20565b9050919050565b7f435249544943414c3a20436f6e747261637420686173206e6f2072657761726460008201527f73206c65667420746f20646973747269627574652e0000000000000000000000602082015250565b6000611fbf6035836117ed565b9150611fca82611f63565b604082019050919050565b60006020820190508181036000830152611fee81611fb2565b9050919050565b7f4d7573742068617665207374616b65642045544820746f20776974686472617760008201527f2e00000000000000000000000000000000000000000000000000000000000000602082015250565b60006120516021836117ed565b915061205c82611ff5565b604082019050919050565b6000602082019050818103600083015261208081612044565b9050919050565b7f4d75737420756e7374616b65206120706f7369746976652076616c75652e0000600082015250565b60006120bd601e836117ed565b91506120c882612087565b602082019050919050565b600060208201905081810360008301526120ec816120b0565b9050919050565b7f4e6f7420656e6f75676820455448207374616b65642e00000000000000000000600082015250565b60006121296016836117ed565b9150612134826120f3565b602082019050919050565b600060208201905081810360008301526121588161211c565b9050919050565b600081905092915050565b50565b600061217a60008361215f565b91506121858261216a565b600082019050919050565b600061219b8261216d565b9150819050919050565b7f4661696c656420746f2073656e642045746865722e0000000000000000000000600082015250565b60006121db6015836117ed565b91506121e6826121a5565b602082019050919050565b6000602082019050818103600083015261220a816121ce565b9050919050565b600081905092915050565b7f416363657373436f6e74726f6c3a206163636f756e7420000000000000000000600082015250565b6000612252601783612211565b915061225d8261221c565b601782019050919050565b600081519050919050565b60005b83811015612291578082015181840152602081019050612276565b838111156122a0576000848401525b50505050565b60006122b182612268565b6122bb8185612211565b93506122cb818560208601612273565b80840191505092915050565b7f206973206d697373696e6720726f6c6520000000000000000000000000000000600082015250565b600061230d601183612211565b9150612318826122d7565b601182019050919050565b600061232e82612245565b915061233a82856122a6565b915061234582612300565b915061235182846122a6565b91508190509392505050565b6000601f19601f8301169050919050565b600061237982612268565b61238381856117ed565b9350612393818560208601612273565b61239c8161235d565b840191505092915050565b600060208201905081810360008301526123c1818461236e565b905092915050565b7f4e487b7100000000000000000000000000000000000000000000000000000000600052604160045260246000fd5b7f4e487b7100000000000000000000000000000000000000000000000000000000600052603260045260246000fd5b6000612432826118fc565b91506000820361244557612444611906565b5b600182039050919050565b7f537472696e67733a20686578206c656e67746820696e73756666696369656e74600082015250565b60006124866020836117ed565b915061249182612450565b602082019050919050565b600060208201905081810360008301526124b581612479565b905091905056fea26469706673582212204bf986c0591d9497aa57048f0976392e8d7c305a6ab340ee5a83b688df56c0a564736f6c634300080d0033",
  "immutableReferences": {},
  "source": "// SPDX-License-Identifier: MIT\r\npragma solidity ^0.8.0;\r\n\r\nimport \"@openzeppelin/contracts/access/AccessControl.sol\";\r\nimport \"@openzeppelin/contracts/security/ReentrancyGuard.sol\";\r\n\r\n///0.04375588 ETH\r\n\r\n/// @title ETHPool\r\n\r\ncontract ETHPool is AccessControl, ReentrancyGuard{\r\n\r\n    bytes32 public constant ADMIN_ROLE = keccak256(\"ADMIN_ROLE\");\r\n    bytes32 public constant TEAM_ROLE = keccak256(\"TEAM_ROLE\");\r\n\r\n    constructor() {\r\n        s_owner = msg.sender;\r\n        _setupRole(ADMIN_ROLE, s_owner);\r\n        _setRoleAdmin(TEAM_ROLE, ADMIN_ROLE);\r\n    }\r\n\r\n    /* --------------------------------- Variables -------------------------------- */\r\n\r\n    /// @notice The total amount of staked tokens in the pool\r\n    uint256 private s_totalPoolBalance;\r\n    address public s_owner;\r\n\r\n    /// @notice The total amount of rewards yet to be distributed\r\n    uint256 private s_totalRewardBalance;\r\n\r\n    /// @notice CURRENT total cumulative rewards per token\r\n    uint256 public s_totalRewardPerTokenMask;\r\n\r\n    /// @notice SNAPSHOT of the [totalRewardPerTokenMask] at the user's last reward\r\n    /// calculation\r\n    mapping(address => uint256) public s_userRewardPerTokenMask;\r\n\r\n    /// @notice The user's rewards data\r\n    mapping(address => Client) public s_client;\r\n\r\n\r\n    /* --------------------------------- Structs -------------------------------- */\r\n    /// \r\n    struct Client {\r\n        uint256 pendingAmount;\r\n        uint256 balance;\r\n    }\r\n\r\n    /* --------------------------------- Events -------------------------------- */\r\n    event StakedETH(address indexed user, uint256 amount);\r\n    event WithdrawnETH(address indexed user, uint256 amount);\r\n    event DepositedRewards(\r\n        uint256 blockNumber,\r\n        uint256 amount\r\n    );\r\n    event ClaimedRewards(address indexed user, uint256 amount);\r\n\r\n    /* --------------------------------- Modifiers -------------------------------- */\r\n    /// @dev Comprueba si el [msg.value] es un valor positivo\r\n    modifier positiveEthValue() {\r\n        require(msg.value > 0, \"Must send a positive amount of ETH.\");\r\n        _;\r\n    }\r\n\r\n    /// @notice Actualiza las recompensas pendientes del usuario y cambia su mscara.\r\n    modifier updateUserRewards(address _account) {\r\n        // Actualiza las recompensas pendientes del usuario\r\n        s_client[_account].pendingAmount = getUserPendingRewards(_account);\r\n        // Actualiza la mscara de recompensa del usuario\r\n        s_userRewardPerTokenMask[_account] = s_totalRewardPerTokenMask;\r\n        _;\r\n    }\r\n\r\n    /// @notice Update the contract's total rewards mask with the newest rewards.\r\n    modifier updateTotalRewards(uint256 _reward) {\r\n        s_totalRewardPerTokenMask = getNextTotalRewardMask(_reward);\r\n        _;\r\n    }\r\n\r\n\r\n    /* --------------------------------- Functions -------------------------------- */\r\n    /// @notice Recibe un depsito de ETH y actualiza el saldo del usuario.\r\n    receive() \r\n        external\r\n        payable\r\n        nonReentrant\r\n        positiveEthValue\r\n        updateUserRewards(msg.sender)\r\n    {\r\n        s_totalPoolBalance += msg.value;\r\n        s_client[msg.sender].balance += msg.value;\r\n        emit StakedETH(msg.sender, msg.value);\r\n    }\r\n\r\n    /// @notice Withdraws all the user's staked tokens and updates the pool's balance.\r\n    function withdrawAllETH() public {\r\n        withdrawExactETH(s_client[msg.sender].balance);\r\n    }\r\n\r\n    /// @notice Withdraws an exact amount of user's staked tokens and updates the pool's balance.\r\n    /// @param _amount the exact amount of tokens to withdraw.\r\n    function withdrawExactETH(uint256 _amount)\r\n        public\r\n        nonReentrant\r\n        updateUserRewards(msg.sender)\r\n    {\r\n        uint256 staked = s_client[msg.sender].balance;\r\n        require(staked > 0, \"Must have staked ETH to withdraw.\");\r\n        require(_amount > 0, \"Must unstake a positive value.\");\r\n        require(staked >= _amount, \"Not enough ETH staked.\");\r\n\r\n        s_client[msg.sender].balance = staked - _amount;\r\n        s_totalPoolBalance -= _amount;\r\n\r\n        // AFAIK This is the preferred way of transferring ETH currently\r\n        (bool sent, ) = msg.sender.call{value: _amount}(\"\");\r\n        require(sent, \"Failed to send Ether.\");\r\n\r\n        emit WithdrawnETH(msg.sender, _amount);\r\n    }\r\n\r\n    /* --------------------------------- Views --------------------------------- */\r\n    /// @return the current total of staked tokens.\r\n    function getPoolBalance() public view returns (uint256) {\r\n        return s_totalPoolBalance;\r\n    }\r\n\r\n    /// @return the current total of rewards tokens to be distributed.\r\n    function getRewardBalance() public view returns (uint256) {\r\n        return s_totalRewardBalance;\r\n    }\r\n\r\n    function getUserBalance(address _account) public view returns(uint256){\r\n        return s_client[_account].balance;\r\n    }\r\n\r\n    /// @notice Subtract the user's mask from the total mask to obtain the rewards\r\n    /// per token, and multiply that by the user's staked balance.\r\n    /// Accumulate the result with the already pending rewards.\r\n    /// @param _account the user's address.\r\n    /// @return the user's pending rewards.\r\n    function getUserPendingRewards(address _account)\r\n        public\r\n        view\r\n        returns (uint256)\r\n    {\r\n        Client memory client = s_client[_account];\r\n        return\r\n            ((client.balance *\r\n                (s_totalRewardPerTokenMask - s_userRewardPerTokenMask[_account])) /\r\n                1e18) + client.pendingAmount;\r\n    }\r\n\r\n    /// @notice Calculate the next total rewards mask, accumulating the pool's\r\n    /// current balance and a specific reward.\r\n    /// @param _reward the amount of reward to be distributed in the current pool.\r\n    /// @return the next total rewards mask.\r\n    function getNextTotalRewardMask(uint256 _reward)\r\n        public\r\n        view\r\n        returns (uint256)\r\n    {\r\n        if (s_totalPoolBalance == 0) {\r\n            return 0;\r\n        }\r\n        return s_totalRewardPerTokenMask + ((_reward * 1e18) / s_totalPoolBalance);\r\n    }\r\n\r\n    /* --------------------------------- Rewards -------------------------------- */\r\n    /// @notice Admin's function to distribute rewards to stakers.\r\n    function depositRewards()\r\n        public\r\n        payable\r\n        onlyRole(TEAM_ROLE)\r\n        positiveEthValue\r\n        updateTotalRewards(msg.value)\r\n    {\r\n        require(\r\n            s_totalPoolBalance > 0,\r\n            \"The pool must have at least one staking user.\"\r\n        );\r\n        s_totalRewardBalance += msg.value;\r\n        emit DepositedRewards(block.number, msg.value);\r\n    }\r\n\r\n    /// @notice Claim all the user's pending rewards.\r\n    function claimRewards() public nonReentrant updateUserRewards(msg.sender) {\r\n        Client memory client = s_client[msg.sender];\r\n        uint256 pending = client.pendingAmount;\r\n        require(client.pendingAmount > 0, \"User has no pending rewards.\");\r\n        require(\r\n            address(this).balance >= pending,\r\n            \"CRITICAL: Contract has no ETH.\"\r\n        );\r\n        require(\r\n            s_totalRewardBalance >= pending,\r\n            \"CRITICAL: Contract has no rewards left to distribute.\"\r\n        );\r\n\r\n        client.pendingAmount = 0;\r\n        client.balance += pending;\r\n        s_totalPoolBalance += pending;\r\n        s_totalRewardBalance -= pending;\r\n\r\n        emit ClaimedRewards(msg.sender, pending);\r\n    }\r\n}\r\n",
  "sourcePath": "C:\\Users\\lucac\\Desktop\\Portafolio\\ETHPool\\contracts\\ETHPool.sol",
  "compiler": {
    "name": "solc",
    "version": "0.8.13+commit.abaa5c0e.Emscripten.clang"
  },
  "schemaVersion": "3.4.7",
  "updatedAt": "2022-05-10T20:17:57.122Z",
  "networkType": "ethereum",
  "devdoc": {
    "kind": "dev",
    "methods": {
      "getNextTotalRewardMask(uint256)": {
        "params": {
          "_reward": "the amount of reward to be distributed in the current pool."
        },
        "returns": {
          "_0": "the next total rewards mask."
        }
      },
      "getPoolBalance()": {
        "returns": {
          "_0": "the current total of staked tokens."
        }
      },
      "getRewardBalance()": {
        "returns": {
          "_0": "the current total of rewards tokens to be distributed."
        }
      },
      "getRoleAdmin(bytes32)": {
        "details": "Returns the admin role that controls `role`. See {grantRole} and {revokeRole}. To change a role's admin, use {_setRoleAdmin}."
      },
      "getUserPendingRewards(address)": {
        "params": {
          "_account": "the user's address."
        },
        "returns": {
          "_0": "the user's pending rewards."
        }
      },
      "grantRole(bytes32,address)": {
        "details": "Grants `role` to `account`. If `account` had not been already granted `role`, emits a {RoleGranted} event. Requirements: - the caller must have ``role``'s admin role."
      },
      "hasRole(bytes32,address)": {
        "details": "Returns `true` if `account` has been granted `role`."
      },
      "renounceRole(bytes32,address)": {
        "details": "Revokes `role` from the calling account. Roles are often managed via {grantRole} and {revokeRole}: this function's purpose is to provide a mechanism for accounts to lose their privileges if they are compromised (such as when a trusted device is misplaced). If the calling account had been revoked `role`, emits a {RoleRevoked} event. Requirements: - the caller must be `account`."
      },
      "revokeRole(bytes32,address)": {
        "details": "Revokes `role` from `account`. If `account` had been granted `role`, emits a {RoleRevoked} event. Requirements: - the caller must have ``role``'s admin role."
      },
      "supportsInterface(bytes4)": {
        "details": "See {IERC165-supportsInterface}."
      },
      "withdrawExactETH(uint256)": {
        "params": {
          "_amount": "the exact amount of tokens to withdraw."
        }
      }
    },
    "title": "ETHPool",
    "version": 1
  },
  "userdoc": {
    "kind": "user",
    "methods": {
      "claimRewards()": {
        "notice": "Claim all the user's pending rewards."
      },
      "depositRewards()": {
        "notice": "Admin's function to distribute rewards to stakers."
      },
      "getNextTotalRewardMask(uint256)": {
        "notice": "Calculate the next total rewards mask, accumulating the pool's current balance and a specific reward."
      },
      "getUserPendingRewards(address)": {
        "notice": "Subtract the user's mask from the total mask to obtain the rewards per token, and multiply that by the user's staked balance. Accumulate the result with the already pending rewards."
      },
      "s_client(address)": {
        "notice": "The user's rewards data"
      },
      "s_totalRewardPerTokenMask()": {
        "notice": "CURRENT total cumulative rewards per token"
      },
      "s_userRewardPerTokenMask(address)": {
        "notice": "SNAPSHOT of the [totalRewardPerTokenMask] at the user's last reward calculation"
      },
      "withdrawAllETH()": {
        "notice": "Withdraws all the user's staked tokens and updates the pool's balance."
      },
      "withdrawExactETH(uint256)": {
        "notice": "Withdraws an exact amount of user's staked tokens and updates the pool's balance."
      }
    },
    "version": 1
  }
}